:1000000009C00EC00DC00CC00BC00AC009C008C09A
:1000100007C006C011241FBECFE9CDBF16D13DC118
:10002000EFCFB89AC0982EE12A95F1F720E030E0A2
:10003000482F50E06EE1CA01022E02C095958795C7
:100040000A94E2F780FF02C0C09A01C0C098862FD0
:100050008A95F1F72F5F3F4F2830310561F7C09A3D
:100060008EE18A95F1F70895CF93DF93EC01009725
:1000700059F06AE070E0FDD0CB01F6DFCE016AE016
:1000800070E0F7D0805DCDDFDF91CF9108950097CC
:1000900011F0EADF089580E3C4DF0895CF93DF9382
:1000A000EC0102C0BEDF219688818823D9F7DF9159
:1000B000CF910895F3DF8AE090E0D6DF0895CF93E3
:1000C000DF93C82FD0E0CE0124E0959587952A953F
:1000D000E1F78A3091051CF48F70805D03C08A506F
:1000E0008F708F5B9EDFCE018F7090700A9734F017
:1000F0009E012A50822F8F708F5B04C09E012F704B
:10010000822F805D8EDFDF91CF910895C39A86E4C0
:1001100091E00197F1F7C3980895682F20E030E04F
:1001200041E050E071E005C0872F8A95F1F72F5F1D
:100130003F4F662351F086B390E0F4E096958795A3
:10014000FA95E1F78427952707C086B390E0E4E0AD
:1001500096958795EA95E1F7817031F7C901089581
:10016000882329F081E0D9DF80E0D7DF089580E09F
:10017000D4DF81E0D2DF0895EF92FF920F931F93B7
:10018000DF93CF93CDB7DEB7A1970FB6F894DEBF5C
:100190000FBECDBF80E0C1DF81E0BFDF81E0E0DFE7
:1001A0008A3918F420E030E042C089838E010E5F66
:1001B0001F4F92E2E92EF12CEC0EFD1E81E0D0DF04
:1001C000F80181938F01EE15FF05C1F7998196958E
:1001D0009695FE01B19620E030E040E050E0BE018F
:1001E0006F5F7F4F79018A01EE0CFF1C001F111F0A
:1001F00020E030E040E050E08081981720F421E0DA
:1002000030E040E050E02E293F29402B512B319720
:100210006E177F0739F7DA01C90180709070B070EE
:10022000892F9A2FAB2FBB273070282B392BC90170
:10023000A1960FB6F894DEBF0FBECDBFCF91DF9170
:100240001F910F91FF90EF9008951F9389E087BB56
:100250008AE0E7DEC39A86E491E00197F1F7C3985C
:100260008BDF182F892F2BDF812F29DF8AE0D9DE42
:10027000F7CFAA1BBB1B51E107C0AA1FBB1FA617C4
:10028000B70710F0A61BB70B881F991F5A95A9F73F
:0E02900080959095BC01CD010895F894FFCFA4
:00000001FF
